:020000040800F2
:1000000000000120050300080B030008110300088D
:1000100033030008390300085B03000800000000F8
:100020000000000000000000000000007D03000848
:100030008303000800000000890300088F03000804
:10004000AD030008AD030008AD030008AD030008D0
:10005000AD030008AD030008AD030008AD030008C0
:10006000AD030008AD030008AD030008AD030008B0
:10007000AD030008AD030008AD030008AD030008A0
:10008000AD030008AD030008AD0300080000000048
:10009000000000000000000000000000AD030008A8
:1000A000AD030008AD030008AD030008AD03000870
:1000B000AD030008AD030008AD030008AD03000860
:1000C000AD030008AD030008AD030008AD03000850
:1000D000AD030008AD030008AD03000800000000F8
:1000E000AD030008AD030008AD03000800000000E8
:1000F000000000000000000000000000AD03000848
:1001000000000000AD030008AD030008AD030008C7
:1001100000000000000000000000000000000000DF
:10012000AD030008AD030008AD030008AD030008EF
:10013000AD03000800000000000000000000000007
:10014000000000000000000000000000AD030008F7
:10015000AD030008AD030008AD030008AD030008BF
:10016000AD030008AD03000800000000000000001F
:10017000000000000000000000000000000000007F
:1001800000000000AD0300080000000000000000B7
:10019000AD03000880B596B000AF00F037F94F4BC3
:1001A0007B6524E07B6D1A1D7A651B683B647B6D63
:1001B0001A1D7A651B68FB637B6D1A1D7A651B68C7
:1001C000BB633B6C7B63FB6B3B63BB6BFB623B6B5F
:1001D000BB6207E07A6B131D7B63BB6A191DB962B2
:1001E00012681A60FA6ABB6A9A42F3D800BF7B6D44
:1001F0003B4A9342D6D33B4B3B651AE03B6D1A1DFD
:100200003A651B68BB643B6D1A1D3A651B687B64CD
:10021000BB6C7B627B6C3B627B6AFB6104E0FB69CD
:100220001A1DFA6100221A603A6AFB699A42F6D8EE
:1002300000BF3B6D2C4A9342E0D300F0F5F83A1D25
:1002400007F108031146184600F0CEF8274A284B5C
:10025000D31A9B103B610023FB6007E0244AFB6834
:1002600052F823309847FB680133FB603A69FB681A
:100270009A42F3DC1F4A204BD31A9B103B610023A8
:10028000FB6007E01C4AFB6852F823309847FB6884
:100290000133FB603A69FB689A42F3DC00BFBB683C
:1002A0007A681146184600F06BF9F864134A144B4B
:1002B000D31A9B10BB61BB697B6108E07B69013B82
:1002C0000F4A52F8233098477B69013B7B617B6979
:1002D000002BF3DC00BFF86C00F080F8B4030008DA
:1002E000CC030008CC030008DC030008DC03000892
:1002F000DC030008DC030008DC030008DC03000862
:10030000DC0300082548004700BF80B400AFFEE7CB
:100310001EF0040F0CBFEFF30880EFF30980714665
:100320001F4A104700BF80B483B000AF78603960C7
:10033000FEE780B400AFFEE71EF0040F0CBFEFF342
:100340000880EFF309807146164A104700BF80B459
:1003500083B000AF78603960FEE71EF0040F0CBF79
:10036000EFF30880EFF3098071460F4A104700BF92
:1003700080B483B000AF78603960FEE780B400AF2E
:10038000FEE780B400AFFEE780B400AFFEE780B4C4
:1003900000AF00BFBD4680BC70470000950100085B
:1003A000270300084F0300087103000880B400AF62
:0203B000FEE766
:1003B400900D0008000000200C000020900D0008A3
:1003C40000000010000000100C00002010000020AD
:0803D400000000100000001001
:1003DC0080B582B000AF786000F03CF880B483B098
:1003EC0000AF786039607B6801221A603B68034A71
:1003FC001A6000BF0C37BD4680BC7047000000205F
:10040C0080B500AF00F02AF8024B034A9A6000BF97
:10041C0080BD00BF00ED00E00000000880B500AF1B
:10042C0000F028F800BF80BD80B400AFBFF34F8F41
:10043C0000BF064BDB6803F4E0620449044B134332
:10044C00CB60BFF34F8F00BF00BFFDE700ED00E0B6
:10045C000400FA0580B500AFFFF7E6FF80B400AFEB
:10046C00034B4FF000629A6000BFBD4680BC7047E2
:10047C0000ED00E080B487B000AF00233B610023A7
:10048C007B610223FB600023BB6002237B60344B47
:10049C009B6803F00C033B613B69082B11D03B6953
:1004AC00082B44D83B69002B03D03B69042B04D0A8
:1004BC003DE02C4B2C4A1A603DE02A4B2B4A1A602B
:1004CC0039E0274B5B689B0D03F00103BB60244BA9
:1004DC005B6803F03F037B60BB68002B0CD0234AA6
:1004EC007B68B2FBF3F31E4A52689209C2F308020E
:1004FC0002FB03F37B610BE01B4A7B68B2FBF3F35B
:10050C00174A52689209C2F3080202FB03F37B619B
:10051C00134B5B681B0C03F0030301335B00FB60A4
:10052C007A69FB68B2FBF3F30E4A136003E00D4BE0
:10053C000D4A1A6000BF0A4B9B681B0903F00F039E
:10054C000B4AD35C3B61074B1A683B6922FA03F3F5
:10055C00044A136000BF1C37BD4680BC704700BF07
:10056C0000380240080000200024F40000127A0039
:10057C00800D000880B584B000AF00F019F901209F
:10058C0000F024F9012300220321422000F072F92B
:10059C000523FB6009E0FB68D9B20023012242204D
:1005AC0000F068F9FB680133FB60FB68072BF2D99C
:1005BC000023FB720023BB7200237B60FB7A072BAA
:1005CC0001D90023FB720321422000F083FB034678
:1005DC00FB7000237B6002E07B6801337B607B68EF
:1005EC0041F287329342F7D90321422000F072FB8B
:1005FC000346BB70BB78002B40F0CF80FA78BB78F9
:10060C009A4240F0CA800123BB72FB7A072B00F29E
:10061C00CD8001A252F823F04506000871060008AF
:10062C009D060008C9060008F50600082107000809
:10063C004D0700087907000801220521422000F02F
:10064C0075FA03467B7001220621422000F06EFAF7
:10065C0003467B7001220721422000F067FA034613
:10066C007B7099E000220521422000F05FFA0346DE
:10067C007B7000220621422000F058FA03467B7062
:10068C0001220721422000F051FA03467B7083E0DF
:10069C0000220521422000F049FA03467B7001221A
:1006AC000621422000F042FA03467B70002207210B
:1006BC00422000F03BFA03467B706DE000220521DE
:1006CC00422000F033FA03467B70012206214220BF
:1006DC0000F02CFA03467B7001220721422000F027
:1006EC0025FA03467B7057E001220521422000F0D9
:1006FC001DFA03467B7000220621422000F016FAF8
:10070C0003467B7000220721422000F00FFA0346BB
:10071C007B7041E001220521422000F007FA0346DC
:10072C007B7000220621422000F000FA03467B7009
:10073C0001220721422000F0F9F903467B702BE0DF
:10074C0001220521422000F0F1F903467B700122C1
:10075C000621422000F0EAF903467B7000220721B3
:10076C00422000F0E3F903467B7015E000220521DE
:10077C00422000F0DBF903467B7000220621422068
:10078C0000F0D4F903467B7000220721422000F0D0
:10079C00CDF903467B7000BF08E0BB7A012B7FF4D8
:1007AC000DAFFB7A0133FB720023BB7206E700BF6F
:1007BC0080B400AF044B1B68034A43F00103136081
:1007CC0000BFBD4680BC70470038024080B485B085
:1007DC0000AF0346FB71FB795B09FB73FB7903F0FC
:1007EC001F03BB73FB7B032B36D801A252F823F0FB
:1007FC000D08000823080008390800084F080008F5
:10080C00184B1B68BA7B012101FA02F21146154AFA
:10081C000B43136021E0144B1B68BA7B012101FAD6
:10082C0002F21146104A0B43136016E00F4B1B6883
:10083C00BA7B012101FA02F211460C4A0B431360F8
:10084C000BE00B4B1B68BA7B012101FA02F211463B
:10085C00074A0B43136000E000BF00BF1437BD46CE
:10086C0080BC704730380240343802404038024077
:10087C004438024090B482B000AF0446084611469A
:10088C001A462346FB710346BB710B467B7113461C
:10089C003B71FB79413B032B00F2238101A252F8FF
:1008AC0023F000BFC108000859090008F10900082D
:1008BC00590A0008924B1B68BA795200032101FABD
:1008CC0002F2D24311468E4A0B4013608C4B1B68CC
:1008DC007979BA79520001FA02F21146884A0B432F
:1008EC0013607B79002B17D1864B1B68BA795200A9
:1008FC00032101FA02F2D2431146824A0B401360E3
:10090C00804B1B683979BA79520001FA02F2114610
:10091C007C4A0B431360E6E07B79012B40F0E380CB
:10092C00794B1B68BA79012101FA02F2D2431146C4
:10093C00754A0B401360744B1B683979BA7901FA0C
:10094C0002F21146704A0B431360CCE06F4B1B68EC
:10095C00BA795200032101FA02F2D24311466B4AD2
:10096C000B401360694B1B687979BA79520001FA14
:10097C0002F21146654A0B4313607B79002B17D1A9
:10098C00634B1B68BA795200032101FA02F2D2437D
:10099C0011465F4A0B4013605D4B1B683979BA797D
:1009AC00520001FA02F21146594A0B4313609CE0C3
:1009BC007B79012B40F09980564B1B68BA79012149
:1009CC0001FA02F2D2431146524A0B401360514BCA
:1009DC001B683979BA7901FA02F211464D4A0B4378
:1009EC00136082E07B79002B17D14B4B1B68BA79D3
:1009FC005200032101FA02F2D2431146464A0B403F
:100A0C001360454B1B683979BA79520001FA02F22E
:100A1C001146414A0B43136069E07B79012B66D187
:100A2C003E4B1B68BA79012101FA02F2D2431146FE
:100A3C003A4A0B401360394B1B683979BA7901FA81
:100A4C0002F21146354A0B43136050E0344B1B68DD
:100A5C00BA795200032101FA02F2D2431146304A0C
:100A6C000B4013602E4B1B687979BA79520001FA4E
:100A7C0002F211462A4A0B4313607B79002B17D1E3
:100A8C00284B1B68BA795200032101FA02F2D243B7
:100A9C001146244A0B401360224B1B683979BA79F2
:100AAC00520001FA02F211461E4A0B43136020E079
:100ABC007B79012B1DD11C4B1B68BA79012101FAE2
:100ACC0002F2D2431146184A0B401360164B1B68B6
:100ADC003979BA7901FA02F21146134A0B431360C1
:100AEC0007E000BF06E000BF04E000BF02E000BF6B
:100AFC0000E000BF00BF0837BD4690BC704700BF88
:100B0C00000002400C0002400400024000040240BD
:100B1C000C040240040402400C0802400408024089
:100B2C00000C02400C0C0240040C024080B485B056
:100B3C0000AF0346FB710B46BB7113467B71FB790F
:100B4C00413B032B00F2B08001A252F823F000BF0E
:100B5C006D0B0008BF0B0008110C0008630C00089B
:100B6C00544B1B68BA795200032101FA02F21A4065
:100B7C00BB795B0022FA03F3FB73FB7B012B16D1D1
:100B8C004D4B1B68BA79012101FA02F2D24311468E
:100B9C00494A0B401360484B1B687979BA7901FAC2
:100BAC0002F21146444A0B43136001237DE00023FB
:100BBC007BE0424B1B68BA795200032101FA02F226
:100BCC001A40BB795B0022FA03F3FB73FB7B012B0E
:100BDC0016D13B4B1B68BA79012101FA02F2D243C0
:100BEC001146374A0B401360354B1B687979BA793B
:100BFC0001FA02F21146324A0B431360012354E00E
:100C0C00002352E02F4B1B68BA795200032101FAE2
:100C1C0002F21A40BB795B0022FA03F3FB73FB7BF5
:100C2C00012B16D1284B1B68BA79012101FA02F26B
:100C3C00D2431146244A0B401360234B1B6879792D
:100C4C00BA7901FA02F211461F4A0B4313600123D1
:100C5C002BE0002329E01D4B1B68BA7952000321BD
:100C6C0001FA02F21A40BB795B0022FA03F3FB7320
:100C7C00FB7B012B16D1164B1B68BA79012101FAAB
:100C8C0002F2D2431146124A0B401360104B1B6800
:100C9C007979BA7901FA02F211460D4A0B431360C5
:100CAC00012302E0002300E0002318461437BD4660
:100CBC0080BC704700000240140002400004024057
:100CCC00140402400008024014080240000C0240C8
:100CDC00140C024080B485B000AF03460A46FB7189
:100CEC001346BB710023FB73FB79413B032B33D8B9
:100CFC0001A252F823F000BF150D0008290D0008C1
:100D0C003D0D0008510D0008164B1A68BB7922FAEC
:100D1C0003F3DBB203F00103FB731DE0124B1A6803
:100D2C00BB7922FA03F3DBB203F00103FB7313E08C
:100D3C000E4B1A68BB7922FA03F3DBB203F0010302
:100D4C00FB7309E00A4B1A68BB7922FA03F3DBB296
:100D5C0003F00103FB7300BFFB7B18461437BD4641
:100D6C0080BC704710000240100402401008024082
:100D7C00100C0240000000000000000001020304FF
:040D8C000607080945
:0C0D90000C000020000000000024F40013
:040000050800019559
:00000001FF
